{
  "contractName": "CrowdFunding",
  "abi": [
    {
      "inputs": [
        {
          "internalType": "uint256",
          "name": "",
          "type": "uint256"
        }
      ],
      "name": "campaigns",
      "outputs": [
        {
          "internalType": "address",
          "name": "owner",
          "type": "address"
        },
        {
          "internalType": "string",
          "name": "title",
          "type": "string"
        },
        {
          "internalType": "string",
          "name": "description",
          "type": "string"
        },
        {
          "internalType": "uint256",
          "name": "target",
          "type": "uint256"
        },
        {
          "internalType": "uint256",
          "name": "deadline",
          "type": "uint256"
        },
        {
          "internalType": "uint256",
          "name": "amountCollected",
          "type": "uint256"
        },
        {
          "internalType": "string",
          "name": "image",
          "type": "string"
        }
      ],
      "stateMutability": "view",
      "type": "function",
      "constant": true
    },
    {
      "inputs": [],
      "name": "numberOfCampaigns",
      "outputs": [
        {
          "internalType": "uint256",
          "name": "",
          "type": "uint256"
        }
      ],
      "stateMutability": "view",
      "type": "function",
      "constant": true
    },
    {
      "inputs": [
        {
          "internalType": "string",
          "name": "_title",
          "type": "string"
        },
        {
          "internalType": "string",
          "name": "_description",
          "type": "string"
        },
        {
          "internalType": "uint256",
          "name": "_target",
          "type": "uint256"
        },
        {
          "internalType": "uint256",
          "name": "_deadline",
          "type": "uint256"
        },
        {
          "internalType": "string",
          "name": "_image",
          "type": "string"
        }
      ],
      "name": "createCampaign",
      "outputs": [
        {
          "internalType": "uint256",
          "name": "",
          "type": "uint256"
        }
      ],
      "stateMutability": "nonpayable",
      "type": "function"
    },
    {
      "inputs": [
        {
          "internalType": "uint256",
          "name": "_id",
          "type": "uint256"
        }
      ],
      "name": "donateToCampaign",
      "outputs": [],
      "stateMutability": "payable",
      "type": "function",
      "payable": true
    },
    {
      "inputs": [
        {
          "internalType": "uint256",
          "name": "_id",
          "type": "uint256"
        }
      ],
      "name": "getDonators",
      "outputs": [
        {
          "internalType": "address[]",
          "name": "",
          "type": "address[]"
        },
        {
          "internalType": "uint256[]",
          "name": "",
          "type": "uint256[]"
        }
      ],
      "stateMutability": "view",
      "type": "function",
      "constant": true
    },
    {
      "inputs": [],
      "name": "getCampaigns",
      "outputs": [
        {
          "components": [
            {
              "internalType": "address",
              "name": "owner",
              "type": "address"
            },
            {
              "internalType": "string",
              "name": "title",
              "type": "string"
            },
            {
              "internalType": "string",
              "name": "description",
              "type": "string"
            },
            {
              "internalType": "uint256",
              "name": "target",
              "type": "uint256"
            },
            {
              "internalType": "uint256",
              "name": "deadline",
              "type": "uint256"
            },
            {
              "internalType": "uint256",
              "name": "amountCollected",
              "type": "uint256"
            },
            {
              "internalType": "string",
              "name": "image",
              "type": "string"
            },
            {
              "internalType": "address[]",
              "name": "donators",
              "type": "address[]"
            },
            {
              "internalType": "uint256[]",
              "name": "donations",
              "type": "uint256[]"
            }
          ],
          "internalType": "struct CrowdFunding.Campaign[]",
          "name": "",
          "type": "tuple[]"
        }
      ],
      "stateMutability": "view",
      "type": "function",
      "constant": true
    }
  ],
  "bytecode": "0x6080604052600060015534801561001557600080fd5b50611751806100256000396000f3fe6080604052600436106100555760003560e01c806307ca140d1461005a5780630fa91fa914610085578063141961bc146100c357806342a4fda814610106578063a6b0363314610122578063d4e3dd6f1461014d575b600080fd5b34801561006657600080fd5b5061006f61018a565b60405161007c9190610c29565b60405180910390f35b34801561009157600080fd5b506100ac60048036038101906100a79190610c84565b610190565b6040516100ba929190610e5f565b60405180910390f35b3480156100cf57600080fd5b506100ea60048036038101906100e59190610c84565b6102a0565b6040516100fd9796959493929190610f3e565b60405180910390f35b610120600480360381019061011b9190610c84565b61049a565b005b34801561012e57600080fd5b506101376105fa565b604051610144919061128d565b60405180910390f35b34801561015957600080fd5b50610174600480360381019061016f91906113e4565b6109d0565b6040516101819190610c29565b60405180910390f35b60015481565b6060806000808481526020019081526020016000206007016000808581526020019081526020016000206008018180548060200260200160405190810160405280929190818152602001828054801561023e57602002820191906000526020600020905b8160009054906101000a900473ffffffffffffffffffffffffffffffffffffffff1673ffffffffffffffffffffffffffffffffffffffff16815260200190600101908083116101f4575b505050505091508080548060200260200160405190810160405280929190818152602001828054801561029057602002820191906000526020600020905b81548152602001906001019080831161027c575b5050505050905091509150915091565b60006020528060005260406000206000915090508060000160009054906101000a900473ffffffffffffffffffffffffffffffffffffffff16908060010180546102e9906114e2565b80601f0160208091040260200160405190810160405280929190818152602001828054610315906114e2565b80156103625780601f1061033757610100808354040283529160200191610362565b820191906000526020600020905b81548152906001019060200180831161034557829003601f168201915b505050505090806002018054610377906114e2565b80601f01602080910402602001604051908101604052809291908181526020018280546103a3906114e2565b80156103f05780601f106103c5576101008083540402835291602001916103f0565b820191906000526020600020905b8154815290600101906020018083116103d357829003601f168201915b505050505090806003015490806004015490806005015490806006018054610417906114e2565b80601f0160208091040260200160405190810160405280929190818152602001828054610443906114e2565b80156104905780601f1061046557610100808354040283529160200191610490565b820191906000526020600020905b81548152906001019060200180831161047357829003601f168201915b5050505050905087565b60003490506000806000848152602001908152602001600020905080600701339080600181540180825580915050600190039060005260206000200160009091909190916101000a81548173ffffffffffffffffffffffffffffffffffffffff021916908373ffffffffffffffffffffffffffffffffffffffff1602179055508060080182908060018154018082558091505060019003906000526020600020016000909190919091505560008160000160009054906101000a900473ffffffffffffffffffffffffffffffffffffffff1673ffffffffffffffffffffffffffffffffffffffff168360405161058f90611544565b60006040518083038185875af1925050503d80600081146105cc576040519150601f19603f3d011682016040523d82523d6000602084013e6105d1565b606091505b5050905080156105f4578282600501546105eb9190611588565b82600501819055505b50505050565b6060600060015467ffffffffffffffff81111561061a576106196112b9565b5b60405190808252806020026020018201604052801561065357816020015b610640610b0b565b8152602001906001900390816106385790505b50905060005b6001548110156109c8576000806000838152602001908152602001600020905080604051806101200160405290816000820160009054906101000a900473ffffffffffffffffffffffffffffffffffffffff1673ffffffffffffffffffffffffffffffffffffffff1673ffffffffffffffffffffffffffffffffffffffff1681526020016001820180546106ec906114e2565b80601f0160208091040260200160405190810160405280929190818152602001828054610718906114e2565b80156107655780601f1061073a57610100808354040283529160200191610765565b820191906000526020600020905b81548152906001019060200180831161074857829003601f168201915b5050505050815260200160028201805461077e906114e2565b80601f01602080910402602001604051908101604052809291908181526020018280546107aa906114e2565b80156107f75780601f106107cc576101008083540402835291602001916107f7565b820191906000526020600020905b8154815290600101906020018083116107da57829003601f168201915b5050505050815260200160038201548152602001600482015481526020016005820154815260200160068201805461082e906114e2565b80601f016020809104026020016040519081016040528092919081815260200182805461085a906114e2565b80156108a75780601f1061087c576101008083540402835291602001916108a7565b820191906000526020600020905b81548152906001019060200180831161088a57829003601f168201915b505050505081526020016007820180548060200260200160405190810160405280929190818152602001828054801561093557602002820191906000526020600020905b8160009054906101000a900473ffffffffffffffffffffffffffffffffffffffff1673ffffffffffffffffffffffffffffffffffffffff16815260200190600101908083116108eb575b505050505081526020016008820180548060200260200160405190810160405280929190818152602001828054801561098d57602002820191906000526020600020905b815481526020019060010190808311610979575b5050505050815250508383815181106109a9576109a86115de565b5b60200260200101819052505080806109c09061160d565b915050610659565b508091505090565b6000806000806001548152602001908152602001600020905042816004015410610a2f576040517f08c379a0000000000000000000000000000000000000000000000000000000008152600401610a26906116c7565b60405180910390fd5b338160000160006101000a81548173ffffffffffffffffffffffffffffffffffffffff021916908373ffffffffffffffffffffffffffffffffffffffff16021790555086816001019080519060200190610a8a929190610b6d565b5085816002019080519060200190610aa3929190610b6d565b508481600301819055508381600401819055506000816005018190555082816006019080519060200190610ad8929190610b6d565b5060016000815480929190610aec9061160d565b919050555060018054610aff91906116e7565b91505095945050505050565b604051806101200160405280600073ffffffffffffffffffffffffffffffffffffffff16815260200160608152602001606081526020016000815260200160008152602001600081526020016060815260200160608152602001606081525090565b828054610b79906114e2565b90600052602060002090601f016020900481019282610b9b5760008555610be2565b82601f10610bb457805160ff1916838001178555610be2565b82800160010185558215610be2579182015b82811115610be1578251825591602001919060010190610bc6565b5b509050610bef9190610bf3565b5090565b5b80821115610c0c576000816000905550600101610bf4565b5090565b6000819050919050565b610c2381610c10565b82525050565b6000602082019050610c3e6000830184610c1a565b92915050565b6000604051905090565b600080fd5b600080fd5b610c6181610c10565b8114610c6c57600080fd5b50565b600081359050610c7e81610c58565b92915050565b600060208284031215610c9a57610c99610c4e565b5b6000610ca884828501610c6f565b91505092915050565b600081519050919050565b600082825260208201905092915050565b6000819050602082019050919050565b600073ffffffffffffffffffffffffffffffffffffffff82169050919050565b6000610d0882610cdd565b9050919050565b610d1881610cfd565b82525050565b6000610d2a8383610d0f565b60208301905092915050565b6000602082019050919050565b6000610d4e82610cb1565b610d588185610cbc565b9350610d6383610ccd565b8060005b83811015610d94578151610d7b8882610d1e565b9750610d8683610d36565b925050600181019050610d67565b5085935050505092915050565b600081519050919050565b600082825260208201905092915050565b6000819050602082019050919050565b610dd681610c10565b82525050565b6000610de88383610dcd565b60208301905092915050565b6000602082019050919050565b6000610e0c82610da1565b610e168185610dac565b9350610e2183610dbd565b8060005b83811015610e52578151610e398882610ddc565b9750610e4483610df4565b925050600181019050610e25565b5085935050505092915050565b60006040820190508181036000830152610e798185610d43565b90508181036020830152610e8d8184610e01565b90509392505050565b610e9f81610cfd565b82525050565b600081519050919050565b600082825260208201905092915050565b60005b83811015610edf578082015181840152602081019050610ec4565b83811115610eee576000848401525b50505050565b6000601f19601f8301169050919050565b6000610f1082610ea5565b610f1a8185610eb0565b9350610f2a818560208601610ec1565b610f3381610ef4565b840191505092915050565b600060e082019050610f53600083018a610e96565b8181036020830152610f658189610f05565b90508181036040830152610f798188610f05565b9050610f886060830187610c1a565b610f956080830186610c1a565b610fa260a0830185610c1a565b81810360c0830152610fb48184610f05565b905098975050505050505050565b600081519050919050565b600082825260208201905092915050565b6000819050602082019050919050565b600082825260208201905092915050565b600061100a82610ea5565b6110148185610fee565b9350611024818560208601610ec1565b61102d81610ef4565b840191505092915050565b600082825260208201905092915050565b600061105482610cb1565b61105e8185611038565b935061106983610ccd565b8060005b8381101561109a5781516110818882610d1e565b975061108c83610d36565b92505060018101905061106d565b5085935050505092915050565b600082825260208201905092915050565b60006110c382610da1565b6110cd81856110a7565b93506110d883610dbd565b8060005b838110156111095781516110f08882610ddc565b97506110fb83610df4565b9250506001810190506110dc565b5085935050505092915050565b60006101208301600083015161112f6000860182610d0f565b50602083015184820360208601526111478282610fff565b915050604083015184820360408601526111618282610fff565b91505060608301516111766060860182610dcd565b5060808301516111896080860182610dcd565b5060a083015161119c60a0860182610dcd565b5060c083015184820360c08601526111b48282610fff565b91505060e083015184820360e08601526111ce8282611049565b9150506101008301518482036101008601526111ea82826110b8565b9150508091505092915050565b60006112038383611116565b905092915050565b6000602082019050919050565b600061122382610fc2565b61122d8185610fcd565b93508360208202850161123f85610fde565b8060005b8581101561127b578484038952815161125c85826111f7565b94506112678361120b565b925060208a01995050600181019050611243565b50829750879550505050505092915050565b600060208201905081810360008301526112a78184611218565b905092915050565b600080fd5b600080fd5b7f4e487b7100000000000000000000000000000000000000000000000000000000600052604160045260246000fd5b6112f182610ef4565b810181811067ffffffffffffffff821117156113105761130f6112b9565b5b80604052505050565b6000611323610c44565b905061132f82826112e8565b919050565b600067ffffffffffffffff82111561134f5761134e6112b9565b5b61135882610ef4565b9050602081019050919050565b82818337600083830152505050565b600061138761138284611334565b611319565b9050828152602081018484840111156113a3576113a26112b4565b5b6113ae848285611365565b509392505050565b600082601f8301126113cb576113ca6112af565b5b81356113db848260208601611374565b91505092915050565b600080600080600060a08688031215611400576113ff610c4e565b5b600086013567ffffffffffffffff81111561141e5761141d610c53565b5b61142a888289016113b6565b955050602086013567ffffffffffffffff81111561144b5761144a610c53565b5b611457888289016113b6565b945050604061146888828901610c6f565b935050606061147988828901610c6f565b925050608086013567ffffffffffffffff81111561149a57611499610c53565b5b6114a6888289016113b6565b9150509295509295909350565b7f4e487b7100000000000000000000000000000000000000000000000000000000600052602260045260246000fd5b600060028204905060018216806114fa57607f821691505b60208210810361150d5761150c6114b3565b5b50919050565b600081905092915050565b50565b600061152e600083611513565b91506115398261151e565b600082019050919050565b600061154f82611521565b9150819050919050565b7f4e487b7100000000000000000000000000000000000000000000000000000000600052601160045260246000fd5b600061159382610c10565b915061159e83610c10565b9250827fffffffffffffffffffffffffffffffffffffffffffffffffffffffffffffffff038211156115d3576115d2611559565b5b828201905092915050565b7f4e487b7100000000000000000000000000000000000000000000000000000000600052603260045260246000fd5b600061161882610c10565b91507fffffffffffffffffffffffffffffffffffffffffffffffffffffffffffffffff820361164a57611649611559565b5b600182019050919050565b7f54686520646561646c696e652073686f756c642062652061206461746520696e60008201527f20746865206675747572652e0000000000000000000000000000000000000000602082015250565b60006116b1602c83610eb0565b91506116bc82611655565b604082019050919050565b600060208201905081810360008301526116e0816116a4565b9050919050565b60006116f282610c10565b91506116fd83610c10565b9250828210156117105761170f611559565b5b82820390509291505056fea26469706673582212209e7a6f415f80a9b0675c13cb8def0ad2b1dbd6042954beb26042bdd66fb22d7664736f6c634300080d0033",
  "immutableReferences": {},
  "source": "// SPDX-License-Identifier: UNLICENSED\r\n\r\npragma solidity ^0.8.9;\r\n\r\ncontract CrowdFunding {\r\n    struct Campaign {\r\n        address owner;\r\n        string title;\r\n        string description;\r\n        uint256 target; \r\n        uint256 deadline;\r\n        uint256 amountCollected;\r\n        string image;\r\n        address[] donators;\r\n        uint256[] donations;\r\n\r\n    }\r\n\r\n    mapping(uint256 => Campaign) public campaigns;\r\n\r\n    uint256 public numberOfCampaigns = 0;\r\n\r\n    function createCampaign(string memory _title, string memory _description, uint256 _target, uint256 _deadline, string memory _image) public returns (uint256) {\r\n        Campaign storage campaign = campaigns[numberOfCampaigns];\r\n\r\n        require(campaign.deadline < block.timestamp, \"The deadline should be a date in the future.\");\r\n\r\n        campaign.owner = msg.sender;\r\n        campaign.title = _title;\r\n        campaign.description = _description;\r\n        campaign.target = _target;\r\n        campaign.deadline = _deadline;\r\n        campaign.amountCollected = 0;\r\n        campaign.image = _image;\r\n\r\n        numberOfCampaigns++;\r\n\r\n        return numberOfCampaigns - 1;\r\n    }\r\n\r\n    function donateToCampaign(uint256 _id) public payable {\r\n        uint256 amount = msg.value;\r\n\r\n        Campaign storage campaign = campaigns[_id];\r\n\r\n        campaign.donators.push(msg.sender);\r\n        campaign.donations.push(amount);\r\n        \r\n\r\n        (bool sent, ) = payable(campaign.owner).call{value: amount}(\"\");\r\n\r\n        if(sent) {\r\n            campaign.amountCollected = campaign.amountCollected + amount;\r\n        }\r\n    }\r\n\r\n    function getDonators(uint256 _id) view public returns (address[] memory, uint256[] memory) {\r\n        return (campaigns[_id].donators, campaigns[_id].donations);\r\n    }\r\n\r\n    function getCampaigns() public view returns (Campaign[] memory) {\r\n        Campaign[] memory allCampaigns = new Campaign[](numberOfCampaigns);\r\n\r\n        for(uint i = 0; i < numberOfCampaigns; i++) {\r\n            Campaign storage item = campaigns[i];\r\n\r\n            allCampaigns[i] = item;\r\n        }\r\n\r\n        return allCampaigns;\r\n    }\r\n}",
  "sourcePath": "C:\\Users\\Administrator\\Desktop\\KuzaDevs\\web3\\contracts\\CrowdFunding.sol",
  "compiler": {
    "name": "solc",
    "version": "0.8.13+commit.abaa5c0e.Emscripten.clang"
  },
  "schemaVersion": "3.4.16",
  "updatedAt": "2025-03-06T16:07:58.317Z",
  "networkType": "ethereum",
  "devdoc": {
    "kind": "dev",
    "methods": {},
    "version": 1
  },
  "userdoc": {
    "kind": "user",
    "methods": {},
    "version": 1
  }
}